{"abi":[{"type":"constructor","inputs":[{"name":"_token","type":"address","internalType":"contract KnowledgeKingToken"}],"stateMutability":"nonpayable"},{"type":"function","name":"end","inputs":[],"outputs":[],"stateMutability":"nonpayable"},{"type":"function","name":"initPlayer","inputs":[{"name":"player","type":"address","internalType":"address"}],"outputs":[],"stateMutability":"nonpayable"},{"type":"function","name":"play","inputs":[],"outputs":[],"stateMutability":"nonpayable"},{"type":"function","name":"token","inputs":[],"outputs":[{"name":"","type":"address","internalType":"contract KnowledgeKingToken"}],"stateMutability":"view"},{"type":"function","name":"win","inputs":[{"name":"player","type":"address","internalType":"address"}],"outputs":[],"stateMutability":"nonpayable"}],"bytecode":{"object":"0x60806040526001600355348015610014575f5ffd5b506040516114663803806114668339818101604052810190610036919061012a565b805f5f6101000a81548173ffffffffffffffffffffffffffffffffffffffff021916908373ffffffffffffffffffffffffffffffffffffffff1602179055503360015f6101000a81548173ffffffffffffffffffffffffffffffffffffffff021916908373ffffffffffffffffffffffffffffffffffffffff16021790555050610155565b5f5ffd5b5f73ffffffffffffffffffffffffffffffffffffffff82169050919050565b5f6100e8826100bf565b9050919050565b5f6100f9826100de565b9050919050565b610109816100ef565b8114610113575f5ffd5b50565b5f8151905061012481610100565b92915050565b5f6020828403121561013f5761013e6100bb565b5b5f61014c84828501610116565b91505092915050565b611304806101625f395ff3fe608060405234801561000f575f5ffd5b5060043610610055575f3560e01c806393e84cd914610059578063a34cc84514610063578063d2e81bf91461007f578063efbe1c1c1461009b578063fc0c546a146100a5575b5f5ffd5b6100616100c3565b005b61007d60048036038101906100789190610c14565b6104b5565b005b61009960048036038101906100949190610c14565b61079a565b005b6100a3610a46565b005b6100ad610b92565b6040516100ba9190610c9a565b60405180910390f35b60025f3373ffffffffffffffffffffffffffffffffffffffff1673ffffffffffffffffffffffffffffffffffffffff1681526020019081526020015f205f9054906101000a900460ff1661014c576040517f08c379a000000000000000000000000000000000000000000000000000000000815260040161014390610d0d565b60405180910390fd5b5f60045f3373ffffffffffffffffffffffffffffffffffffffff1673ffffffffffffffffffffffffffffffffffffffff1681526020019081526020015f2054146101cb576040517f08c379a00000000000000000000000000000000000000000000000000000000081526004016101c290610d75565b60405180910390fd5b670de0b6b3a76400005f5f9054906101000a900473ffffffffffffffffffffffffffffffffffffffff1673ffffffffffffffffffffffffffffffffffffffff166370a08231336040518263ffffffff1660e01b815260040161022d9190610da2565b602060405180830381865afa158015610248573d5f5f3e3d5ffd5b505050506040513d601f19601f8201168201806040525081019061026c9190610dee565b10156102ad576040517f08c379a00000000000000000000000000000000000000000000000000000000081526004016102a490610e63565b60405180910390fd5b670de0b6b3a76400005f5f9054906101000a900473ffffffffffffffffffffffffffffffffffffffff1673ffffffffffffffffffffffffffffffffffffffff1663dd62ed3e33306040518363ffffffff1660e01b8152600401610311929190610e81565b602060405180830381865afa15801561032c573d5f5f3e3d5ffd5b505050506040513d601f19601f820116820180604052508101906103509190610dee565b1015610391576040517f08c379a000000000000000000000000000000000000000000000000000000000815260040161038890610ef2565b60405180910390fd5b5f5f9054906101000a900473ffffffffffffffffffffffffffffffffffffffff1673ffffffffffffffffffffffffffffffffffffffff166323b872dd3360015f9054906101000a900473ffffffffffffffffffffffffffffffffffffffff16670de0b6b3a76400006040518463ffffffff1660e01b815260040161041793929190610f49565b6020604051808303815f875af1158015610433573d5f5f3e3d5ffd5b505050506040513d601f19601f820116820180604052508101906104579190610fb3565b5060035460045f3373ffffffffffffffffffffffffffffffffffffffff1673ffffffffffffffffffffffffffffffffffffffff1681526020019081526020015f208190555060035f8154809291906104ae9061100b565b9190505550565b60015f9054906101000a900473ffffffffffffffffffffffffffffffffffffffff1673ffffffffffffffffffffffffffffffffffffffff163373ffffffffffffffffffffffffffffffffffffffff1614610544576040517f08c379a000000000000000000000000000000000000000000000000000000000815260040161053b9061109c565b60405180910390fd5b60025f8273ffffffffffffffffffffffffffffffffffffffff1673ffffffffffffffffffffffffffffffffffffffff1681526020019081526020015f205f9054906101000a900460ff166105cd576040517f08c379a00000000000000000000000000000000000000000000000000000000081526004016105c490610d0d565b60405180910390fd5b671bc16d674ec800005f5f9054906101000a900473ffffffffffffffffffffffffffffffffffffffff1673ffffffffffffffffffffffffffffffffffffffff166370a0823160015f9054906101000a900473ffffffffffffffffffffffffffffffffffffffff166040518263ffffffff1660e01b81526004016106509190610da2565b602060405180830381865afa15801561066b573d5f5f3e3d5ffd5b505050506040513d601f19601f8201168201806040525081019061068f9190610dee565b10156106d0576040517f08c379a00000000000000000000000000000000000000000000000000000000081526004016106c790611104565b60405180910390fd5b5f5f9054906101000a900473ffffffffffffffffffffffffffffffffffffffff1673ffffffffffffffffffffffffffffffffffffffff166323b872dd60015f9054906101000a900473ffffffffffffffffffffffffffffffffffffffff1683671bc16d674ec800006040518463ffffffff1660e01b81526004016107569392919061115b565b6020604051808303815f875af1158015610772573d5f5f3e3d5ffd5b505050506040513d601f19601f820116820180604052508101906107969190610fb3565b5050565b60025f8273ffffffffffffffffffffffffffffffffffffffff1673ffffffffffffffffffffffffffffffffffffffff1681526020019081526020015f205f9054906101000a900460ff1615610824576040517f08c379a000000000000000000000000000000000000000000000000000000000815260040161081b906111da565b60405180910390fd5b674563918244f400005f5f9054906101000a900473ffffffffffffffffffffffffffffffffffffffff1673ffffffffffffffffffffffffffffffffffffffff166370a0823160015f9054906101000a900473ffffffffffffffffffffffffffffffffffffffff166040518263ffffffff1660e01b81526004016108a79190610da2565b602060405180830381865afa1580156108c2573d5f5f3e3d5ffd5b505050506040513d601f19601f820116820180604052508101906108e69190610dee565b1015610927576040517f08c379a000000000000000000000000000000000000000000000000000000000815260040161091e90611104565b60405180910390fd5b600160025f8373ffffffffffffffffffffffffffffffffffffffff1673ffffffffffffffffffffffffffffffffffffffff1681526020019081526020015f205f6101000a81548160ff0219169083151502179055505f5f9054906101000a900473ffffffffffffffffffffffffffffffffffffffff1673ffffffffffffffffffffffffffffffffffffffff166323b872dd60015f9054906101000a900473ffffffffffffffffffffffffffffffffffffffff1683674563918244f400006040518463ffffffff1660e01b8152600401610a0293929190611231565b6020604051808303815f875af1158015610a1e573d5f5f3e3d5ffd5b505050506040513d601f19601f82011682018060405250810190610a429190610fb3565b5050565b60025f3373ffffffffffffffffffffffffffffffffffffffff1673ffffffffffffffffffffffffffffffffffffffff1681526020019081526020015f205f9054906101000a900460ff16610acf576040517f08c379a0000000000000000000000000000000000000000000000000000000008152600401610ac690610d0d565b60405180910390fd5b5f60045f3373ffffffffffffffffffffffffffffffffffffffff1673ffffffffffffffffffffffffffffffffffffffff1681526020019081526020015f205403610b4e576040517f08c379a0000000000000000000000000000000000000000000000000000000008152600401610b45906112b0565b60405180910390fd5b5f60045f3373ffffffffffffffffffffffffffffffffffffffff1673ffffffffffffffffffffffffffffffffffffffff1681526020019081526020015f2081905550565b5f5f9054906101000a900473ffffffffffffffffffffffffffffffffffffffff1681565b5f5ffd5b5f73ffffffffffffffffffffffffffffffffffffffff82169050919050565b5f610be382610bba565b9050919050565b610bf381610bd9565b8114610bfd575f5ffd5b50565b5f81359050610c0e81610bea565b92915050565b5f60208284031215610c2957610c28610bb6565b5b5f610c3684828501610c00565b91505092915050565b5f819050919050565b5f610c62610c5d610c5884610bba565b610c3f565b610bba565b9050919050565b5f610c7382610c48565b9050919050565b5f610c8482610c69565b9050919050565b610c9481610c7a565b82525050565b5f602082019050610cad5f830184610c8b565b92915050565b5f82825260208201905092915050565b7f506c61796572206e6f7420696e697469616c697a6564000000000000000000005f82015250565b5f610cf7601683610cb3565b9150610d0282610cc3565b602082019050919050565b5f6020820190508181035f830152610d2481610ceb565b9050919050565b7f50726576696f75732067616d65206e6f742066696e69736865640000000000005f82015250565b5f610d5f601a83610cb3565b9150610d6a82610d2b565b602082019050919050565b5f6020820190508181035f830152610d8c81610d53565b9050919050565b610d9c81610bd9565b82525050565b5f602082019050610db55f830184610d93565b92915050565b5f819050919050565b610dcd81610dbb565b8114610dd7575f5ffd5b50565b5f81519050610de881610dc4565b92915050565b5f60208284031215610e0357610e02610bb6565b5b5f610e1084828501610dda565b91505092915050565b7f4e6f7420656e6f75676820746f6b656e730000000000000000000000000000005f82015250565b5f610e4d601183610cb3565b9150610e5882610e19565b602082019050919050565b5f6020820190508181035f830152610e7a81610e41565b9050919050565b5f604082019050610e945f830185610d93565b610ea16020830184610d93565b9392505050565b7f4e6f7420656e6f75676820616c6c6f77616e63650000000000000000000000005f82015250565b5f610edc601483610cb3565b9150610ee782610ea8565b602082019050919050565b5f6020820190508181035f830152610f0981610ed0565b9050919050565b5f819050919050565b5f610f33610f2e610f2984610f10565b610c3f565b610dbb565b9050919050565b610f4381610f19565b82525050565b5f606082019050610f5c5f830186610d93565b610f696020830185610d93565b610f766040830184610f3a565b949350505050565b5f8115159050919050565b610f9281610f7e565b8114610f9c575f5ffd5b50565b5f81519050610fad81610f89565b92915050565b5f60208284031215610fc857610fc7610bb6565b5b5f610fd584828501610f9f565b91505092915050565b7f4e487b71000000000000000000000000000000000000000000000000000000005f52601160045260245ffd5b5f61101582610dbb565b91507fffffffffffffffffffffffffffffffffffffffffffffffffffffffffffffffff820361104757611046610fde565b5b600182019050919050565b7f4e6f742074686520636f6e7472616374206f776e6572000000000000000000005f82015250565b5f611086601683610cb3565b915061109182611052565b602082019050919050565b5f6020820190508181035f8301526110b38161107a565b9050919050565b7f4e6f7420656e6f75676820746f6b656e7320696e20636f6e74726163740000005f82015250565b5f6110ee601d83610cb3565b91506110f9826110ba565b602082019050919050565b5f6020820190508181035f83015261111b816110e2565b9050919050565b5f819050919050565b5f61114561114061113b84611122565b610c3f565b610dbb565b9050919050565b6111558161112b565b82525050565b5f60608201905061116e5f830186610d93565b61117b6020830185610d93565b611188604083018461114c565b949350505050565b7f506c6179657220616c726561647920696e697469616c697a65640000000000005f82015250565b5f6111c4601a83610cb3565b91506111cf82611190565b602082019050919050565b5f6020820190508181035f8301526111f1816111b8565b9050919050565b5f819050919050565b5f61121b611216611211846111f8565b610c3f565b610dbb565b9050919050565b61122b81611201565b82525050565b5f6060820190506112445f830186610d93565b6112516020830185610d93565b61125e6040830184611222565b949350505050565b7f4e6f2067616d6520696e2070726f6772657373000000000000000000000000005f82015250565b5f61129a601383610cb3565b91506112a582611266565b602082019050919050565b5f6020820190508181035f8301526112c78161128e565b905091905056fea26469706673582212202233619a348d48f35dced57abd32a01d98ed7c4253443052f6ef4274fe2fcf6a64736f6c634300081c0033","linkReferences":{}},"methodIdentifiers":{"end()":"efbe1c1c","initPlayer(address)":"d2e81bf9","play()":"93e84cd9","token()":"fc0c546a","win(address)":"a34cc845"},"id":20}