{"abi":[{"type":"constructor","inputs":[{"name":"_token","type":"address","internalType":"contract KnowledgeKingToken"}],"stateMutability":"nonpayable"},{"type":"function","name":"end","inputs":[{"name":"player","type":"address","internalType":"address"}],"outputs":[],"stateMutability":"nonpayable"},{"type":"function","name":"initPlayer","inputs":[{"name":"player","type":"address","internalType":"address"}],"outputs":[],"stateMutability":"nonpayable"},{"type":"function","name":"play","inputs":[],"outputs":[],"stateMutability":"nonpayable"},{"type":"function","name":"token","inputs":[],"outputs":[{"name":"","type":"address","internalType":"contract KnowledgeKingToken"}],"stateMutability":"view"},{"type":"function","name":"win","inputs":[{"name":"player","type":"address","internalType":"address"}],"outputs":[],"stateMutability":"nonpayable"}],"bytecode":{"object":"0x60806040526001600355348015610014575f5ffd5b506040516114793803806114798339818101604052810190610036919061012a565b805f5f6101000a81548173ffffffffffffffffffffffffffffffffffffffff021916908373ffffffffffffffffffffffffffffffffffffffff1602179055503360015f6101000a81548173ffffffffffffffffffffffffffffffffffffffff021916908373ffffffffffffffffffffffffffffffffffffffff16021790555050610155565b5f5ffd5b5f73ffffffffffffffffffffffffffffffffffffffff82169050919050565b5f6100e8826100bf565b9050919050565b5f6100f9826100de565b9050919050565b610109816100ef565b8114610113575f5ffd5b50565b5f8151905061012481610100565b92915050565b5f6020828403121561013f5761013e6100bb565b5b5f61014c84828501610116565b91505092915050565b611317806101625f395ff3fe608060405234801561000f575f5ffd5b5060043610610055575f3560e01c80638c4dd39d1461005957806393e84cd914610075578063a34cc8451461007f578063d2e81bf91461009b578063fc0c546a146100b7575b5f5ffd5b610073600480360381019061006e9190610c27565b6100d5565b005b61007d610222565b005b61009960048036038101906100949190610c27565b610614565b005b6100b560048036038101906100b09190610c27565b6108f9565b005b6100bf610ba5565b6040516100cc9190610cad565b60405180910390f35b60025f8273ffffffffffffffffffffffffffffffffffffffff1673ffffffffffffffffffffffffffffffffffffffff1681526020019081526020015f205f9054906101000a900460ff1661015e576040517f08c379a000000000000000000000000000000000000000000000000000000000815260040161015590610d20565b60405180910390fd5b5f60045f8373ffffffffffffffffffffffffffffffffffffffff1673ffffffffffffffffffffffffffffffffffffffff1681526020019081526020015f2054036101dd576040517f08c379a00000000000000000000000000000000000000000000000000000000081526004016101d490610d88565b60405180910390fd5b5f60045f8373ffffffffffffffffffffffffffffffffffffffff1673ffffffffffffffffffffffffffffffffffffffff1681526020019081526020015f208190555050565b60025f3373ffffffffffffffffffffffffffffffffffffffff1673ffffffffffffffffffffffffffffffffffffffff1681526020019081526020015f205f9054906101000a900460ff166102ab576040517f08c379a00000000000000000000000000000000000000000000000000000000081526004016102a290610d20565b60405180910390fd5b5f60045f3373ffffffffffffffffffffffffffffffffffffffff1673ffffffffffffffffffffffffffffffffffffffff1681526020019081526020015f20541461032a576040517f08c379a000000000000000000000000000000000000000000000000000000000815260040161032190610df0565b60405180910390fd5b670de0b6b3a76400005f5f9054906101000a900473ffffffffffffffffffffffffffffffffffffffff1673ffffffffffffffffffffffffffffffffffffffff166370a08231336040518263ffffffff1660e01b815260040161038c9190610e1d565b602060405180830381865afa1580156103a7573d5f5f3e3d5ffd5b505050506040513d601f19601f820116820180604052508101906103cb9190610e69565b101561040c576040517f08c379a000000000000000000000000000000000000000000000000000000000815260040161040390610ede565b60405180910390fd5b670de0b6b3a76400005f5f9054906101000a900473ffffffffffffffffffffffffffffffffffffffff1673ffffffffffffffffffffffffffffffffffffffff1663dd62ed3e33306040518363ffffffff1660e01b8152600401610470929190610efc565b602060405180830381865afa15801561048b573d5f5f3e3d5ffd5b505050506040513d601f19601f820116820180604052508101906104af9190610e69565b10156104f0576040517f08c379a00000000000000000000000000000000000000000000000000000000081526004016104e790610f6d565b60405180910390fd5b5f5f9054906101000a900473ffffffffffffffffffffffffffffffffffffffff1673ffffffffffffffffffffffffffffffffffffffff166323b872dd3360015f9054906101000a900473ffffffffffffffffffffffffffffffffffffffff16670de0b6b3a76400006040518463ffffffff1660e01b815260040161057693929190610fc4565b6020604051808303815f875af1158015610592573d5f5f3e3d5ffd5b505050506040513d601f19601f820116820180604052508101906105b6919061102e565b5060035460045f3373ffffffffffffffffffffffffffffffffffffffff1673ffffffffffffffffffffffffffffffffffffffff1681526020019081526020015f208190555060035f81548092919061060d90611086565b9190505550565b60015f9054906101000a900473ffffffffffffffffffffffffffffffffffffffff1673ffffffffffffffffffffffffffffffffffffffff163373ffffffffffffffffffffffffffffffffffffffff16146106a3576040517f08c379a000000000000000000000000000000000000000000000000000000000815260040161069a90611117565b60405180910390fd5b60025f8273ffffffffffffffffffffffffffffffffffffffff1673ffffffffffffffffffffffffffffffffffffffff1681526020019081526020015f205f9054906101000a900460ff1661072c576040517f08c379a000000000000000000000000000000000000000000000000000000000815260040161072390610d20565b60405180910390fd5b671bc16d674ec800005f5f9054906101000a900473ffffffffffffffffffffffffffffffffffffffff1673ffffffffffffffffffffffffffffffffffffffff166370a0823160015f9054906101000a900473ffffffffffffffffffffffffffffffffffffffff166040518263ffffffff1660e01b81526004016107af9190610e1d565b602060405180830381865afa1580156107ca573d5f5f3e3d5ffd5b505050506040513d601f19601f820116820180604052508101906107ee9190610e69565b101561082f576040517f08c379a00000000000000000000000000000000000000000000000000000000081526004016108269061117f565b60405180910390fd5b5f5f9054906101000a900473ffffffffffffffffffffffffffffffffffffffff1673ffffffffffffffffffffffffffffffffffffffff166323b872dd60015f9054906101000a900473ffffffffffffffffffffffffffffffffffffffff1683671bc16d674ec800006040518463ffffffff1660e01b81526004016108b5939291906111d6565b6020604051808303815f875af11580156108d1573d5f5f3e3d5ffd5b505050506040513d601f19601f820116820180604052508101906108f5919061102e565b5050565b60025f8273ffffffffffffffffffffffffffffffffffffffff1673ffffffffffffffffffffffffffffffffffffffff1681526020019081526020015f205f9054906101000a900460ff1615610983576040517f08c379a000000000000000000000000000000000000000000000000000000000815260040161097a90611255565b60405180910390fd5b674563918244f400005f5f9054906101000a900473ffffffffffffffffffffffffffffffffffffffff1673ffffffffffffffffffffffffffffffffffffffff166370a0823160015f9054906101000a900473ffffffffffffffffffffffffffffffffffffffff166040518263ffffffff1660e01b8152600401610a069190610e1d565b602060405180830381865afa158015610a21573d5f5f3e3d5ffd5b505050506040513d601f19601f82011682018060405250810190610a459190610e69565b1015610a86576040517f08c379a0000000000000000000000000000000000000000000000000000000008152600401610a7d9061117f565b60405180910390fd5b600160025f8373ffffffffffffffffffffffffffffffffffffffff1673ffffffffffffffffffffffffffffffffffffffff1681526020019081526020015f205f6101000a81548160ff0219169083151502179055505f5f9054906101000a900473ffffffffffffffffffffffffffffffffffffffff1673ffffffffffffffffffffffffffffffffffffffff166323b872dd60015f9054906101000a900473ffffffffffffffffffffffffffffffffffffffff1683674563918244f400006040518463ffffffff1660e01b8152600401610b61939291906112ac565b6020604051808303815f875af1158015610b7d573d5f5f3e3d5ffd5b505050506040513d601f19601f82011682018060405250810190610ba1919061102e565b5050565b5f5f9054906101000a900473ffffffffffffffffffffffffffffffffffffffff1681565b5f5ffd5b5f73ffffffffffffffffffffffffffffffffffffffff82169050919050565b5f610bf682610bcd565b9050919050565b610c0681610bec565b8114610c10575f5ffd5b50565b5f81359050610c2181610bfd565b92915050565b5f60208284031215610c3c57610c3b610bc9565b5b5f610c4984828501610c13565b91505092915050565b5f819050919050565b5f610c75610c70610c6b84610bcd565b610c52565b610bcd565b9050919050565b5f610c8682610c5b565b9050919050565b5f610c9782610c7c565b9050919050565b610ca781610c8d565b82525050565b5f602082019050610cc05f830184610c9e565b92915050565b5f82825260208201905092915050565b7f506c61796572206e6f7420696e697469616c697a6564000000000000000000005f82015250565b5f610d0a601683610cc6565b9150610d1582610cd6565b602082019050919050565b5f6020820190508181035f830152610d3781610cfe565b9050919050565b7f4e6f2067616d6520696e2070726f6772657373000000000000000000000000005f82015250565b5f610d72601383610cc6565b9150610d7d82610d3e565b602082019050919050565b5f6020820190508181035f830152610d9f81610d66565b9050919050565b7f50726576696f75732067616d65206e6f742066696e69736865640000000000005f82015250565b5f610dda601a83610cc6565b9150610de582610da6565b602082019050919050565b5f6020820190508181035f830152610e0781610dce565b9050919050565b610e1781610bec565b82525050565b5f602082019050610e305f830184610e0e565b92915050565b5f819050919050565b610e4881610e36565b8114610e52575f5ffd5b50565b5f81519050610e6381610e3f565b92915050565b5f60208284031215610e7e57610e7d610bc9565b5b5f610e8b84828501610e55565b91505092915050565b7f4e6f7420656e6f75676820746f6b656e730000000000000000000000000000005f82015250565b5f610ec8601183610cc6565b9150610ed382610e94565b602082019050919050565b5f6020820190508181035f830152610ef581610ebc565b9050919050565b5f604082019050610f0f5f830185610e0e565b610f1c6020830184610e0e565b9392505050565b7f4e6f7420656e6f75676820616c6c6f77616e63650000000000000000000000005f82015250565b5f610f57601483610cc6565b9150610f6282610f23565b602082019050919050565b5f6020820190508181035f830152610f8481610f4b565b9050919050565b5f819050919050565b5f610fae610fa9610fa484610f8b565b610c52565b610e36565b9050919050565b610fbe81610f94565b82525050565b5f606082019050610fd75f830186610e0e565b610fe46020830185610e0e565b610ff16040830184610fb5565b949350505050565b5f8115159050919050565b61100d81610ff9565b8114611017575f5ffd5b50565b5f8151905061102881611004565b92915050565b5f6020828403121561104357611042610bc9565b5b5f6110508482850161101a565b91505092915050565b7f4e487b71000000000000000000000000000000000000000000000000000000005f52601160045260245ffd5b5f61109082610e36565b91507fffffffffffffffffffffffffffffffffffffffffffffffffffffffffffffffff82036110c2576110c1611059565b5b600182019050919050565b7f4e6f742074686520636f6e7472616374206f776e6572000000000000000000005f82015250565b5f611101601683610cc6565b915061110c826110cd565b602082019050919050565b5f6020820190508181035f83015261112e816110f5565b9050919050565b7f4e6f7420656e6f75676820746f6b656e7320696e20636f6e74726163740000005f82015250565b5f611169601d83610cc6565b915061117482611135565b602082019050919050565b5f6020820190508181035f8301526111968161115d565b9050919050565b5f819050919050565b5f6111c06111bb6111b68461119d565b610c52565b610e36565b9050919050565b6111d0816111a6565b82525050565b5f6060820190506111e95f830186610e0e565b6111f66020830185610e0e565b61120360408301846111c7565b949350505050565b7f506c6179657220616c726561647920696e697469616c697a65640000000000005f82015250565b5f61123f601a83610cc6565b915061124a8261120b565b602082019050919050565b5f6020820190508181035f83015261126c81611233565b9050919050565b5f819050919050565b5f61129661129161128c84611273565b610c52565b610e36565b9050919050565b6112a68161127c565b82525050565b5f6060820190506112bf5f830186610e0e565b6112cc6020830185610e0e565b6112d9604083018461129d565b94935050505056fea264697066735822122037a23de9c16a141f68f439991a4e2bef35da044d5969aa672b63326afab6f30464736f6c634300081c0033","linkReferences":{}},"methodIdentifiers":{"end(address)":"8c4dd39d","initPlayer(address)":"d2e81bf9","play()":"93e84cd9","token()":"fc0c546a","win(address)":"a34cc845"},"id":20}