{"abi":[{"type":"constructor","inputs":[{"name":"_token","type":"address","internalType":"contract IERC20"}],"stateMutability":"nonpayable"},{"type":"function","name":"end","inputs":[],"outputs":[],"stateMutability":"nonpayable"},{"type":"function","name":"initPlayer","inputs":[{"name":"player","type":"address","internalType":"address"}],"outputs":[],"stateMutability":"nonpayable"},{"type":"function","name":"play","inputs":[],"outputs":[],"stateMutability":"nonpayable"},{"type":"function","name":"token","inputs":[],"outputs":[{"name":"","type":"address","internalType":"contract IERC20"}],"stateMutability":"view"},{"type":"function","name":"win","inputs":[{"name":"player","type":"address","internalType":"address"}],"outputs":[],"stateMutability":"nonpayable"},{"type":"event","name":"endGame","inputs":[{"name":"player","type":"address","indexed":true,"internalType":"address"},{"name":"quizId","type":"uint256","indexed":false,"internalType":"uint256"}],"anonymous":false},{"type":"event","name":"startGame","inputs":[{"name":"player","type":"address","indexed":true,"internalType":"address"},{"name":"quizId","type":"uint256","indexed":false,"internalType":"uint256"}],"anonymous":false}],"bytecode":{"object":"0x60806040526001600355348015610014575f5ffd5b506040516114853803806114858339818101604052810190610036919061012a565b805f5f6101000a81548173ffffffffffffffffffffffffffffffffffffffff021916908373ffffffffffffffffffffffffffffffffffffffff1602179055503360015f6101000a81548173ffffffffffffffffffffffffffffffffffffffff021916908373ffffffffffffffffffffffffffffffffffffffff16021790555050610155565b5f5ffd5b5f73ffffffffffffffffffffffffffffffffffffffff82169050919050565b5f6100e8826100bf565b9050919050565b5f6100f9826100de565b9050919050565b610109816100ef565b8114610113575f5ffd5b50565b5f8151905061012481610100565b92915050565b5f6020828403121561013f5761013e6100bb565b5b5f61014c84828501610116565b91505092915050565b611323806101625f395ff3fe608060405234801561000f575f5ffd5b5060043610610055575f3560e01c806393e84cd914610059578063a34cc84514610063578063d2e81bf91461007f578063efbe1c1c1461009b578063fc0c546a146100a5575b5f5ffd5b6100616100c3565b005b61007d60048036038101906100789190610c9a565b610421565b005b61009960048036038101906100949190610c9a565b610706565b005b6100a3610a41565b005b6100ad610c18565b6040516100ba9190610d20565b60405180910390f35b60025f3373ffffffffffffffffffffffffffffffffffffffff1673ffffffffffffffffffffffffffffffffffffffff1681526020019081526020015f205f9054906101000a900460ff1661014c576040517f08c379a000000000000000000000000000000000000000000000000000000000815260040161014390610d93565b60405180910390fd5b5f60045f3373ffffffffffffffffffffffffffffffffffffffff1673ffffffffffffffffffffffffffffffffffffffff1681526020019081526020015f2054146101cb576040517f08c379a00000000000000000000000000000000000000000000000000000000081526004016101c290610dfb565b60405180910390fd5b670de0b6b3a76400005f5f9054906101000a900473ffffffffffffffffffffffffffffffffffffffff1673ffffffffffffffffffffffffffffffffffffffff166370a08231336040518263ffffffff1660e01b815260040161022d9190610e28565b602060405180830381865afa158015610248573d5f5f3e3d5ffd5b505050506040513d601f19601f8201168201806040525081019061026c9190610e74565b10156102ad576040517f08c379a00000000000000000000000000000000000000000000000000000000081526004016102a490610ee9565b60405180910390fd5b5f5f9054906101000a900473ffffffffffffffffffffffffffffffffffffffff1673ffffffffffffffffffffffffffffffffffffffff166323b872dd3360015f9054906101000a900473ffffffffffffffffffffffffffffffffffffffff16670de0b6b3a76400006040518463ffffffff1660e01b815260040161033393929190610f40565b6020604051808303815f875af115801561034f573d5f5f3e3d5ffd5b505050506040513d601f19601f820116820180604052508101906103739190610faa565b503373ffffffffffffffffffffffffffffffffffffffff167ff399c7e6eb8a2e5bf71fe904bc0f5b96f41968d2e34ba0245a7d8476b877e28c6003546040516103bc9190610fe4565b60405180910390a260035460045f3373ffffffffffffffffffffffffffffffffffffffff1673ffffffffffffffffffffffffffffffffffffffff1681526020019081526020015f208190555060035f81548092919061041a9061102a565b9190505550565b60015f9054906101000a900473ffffffffffffffffffffffffffffffffffffffff1673ffffffffffffffffffffffffffffffffffffffff163373ffffffffffffffffffffffffffffffffffffffff16146104b0576040517f08c379a00000000000000000000000000000000000000000000000000000000081526004016104a7906110bb565b60405180910390fd5b60025f8273ffffffffffffffffffffffffffffffffffffffff1673ffffffffffffffffffffffffffffffffffffffff1681526020019081526020015f205f9054906101000a900460ff16610539576040517f08c379a000000000000000000000000000000000000000000000000000000000815260040161053090610d93565b60405180910390fd5b671bc16d674ec800005f5f9054906101000a900473ffffffffffffffffffffffffffffffffffffffff1673ffffffffffffffffffffffffffffffffffffffff166370a0823160015f9054906101000a900473ffffffffffffffffffffffffffffffffffffffff166040518263ffffffff1660e01b81526004016105bc9190610e28565b602060405180830381865afa1580156105d7573d5f5f3e3d5ffd5b505050506040513d601f19601f820116820180604052508101906105fb9190610e74565b101561063c576040517f08c379a000000000000000000000000000000000000000000000000000000000815260040161063390611123565b60405180910390fd5b5f5f9054906101000a900473ffffffffffffffffffffffffffffffffffffffff1673ffffffffffffffffffffffffffffffffffffffff166323b872dd60015f9054906101000a900473ffffffffffffffffffffffffffffffffffffffff1683671bc16d674ec800006040518463ffffffff1660e01b81526004016106c29392919061117a565b6020604051808303815f875af11580156106de573d5f5f3e3d5ffd5b505050506040513d601f19601f820116820180604052508101906107029190610faa565b5050565b60015f9054906101000a900473ffffffffffffffffffffffffffffffffffffffff1673ffffffffffffffffffffffffffffffffffffffff163373ffffffffffffffffffffffffffffffffffffffff1614610795576040517f08c379a000000000000000000000000000000000000000000000000000000000815260040161078c906110bb565b60405180910390fd5b60025f8273ffffffffffffffffffffffffffffffffffffffff1673ffffffffffffffffffffffffffffffffffffffff1681526020019081526020015f205f9054906101000a900460ff161561081f576040517f08c379a0000000000000000000000000000000000000000000000000000000008152600401610816906111f9565b60405180910390fd5b674563918244f400005f5f9054906101000a900473ffffffffffffffffffffffffffffffffffffffff1673ffffffffffffffffffffffffffffffffffffffff166370a0823160015f9054906101000a900473ffffffffffffffffffffffffffffffffffffffff166040518263ffffffff1660e01b81526004016108a29190610e28565b602060405180830381865afa1580156108bd573d5f5f3e3d5ffd5b505050506040513d601f19601f820116820180604052508101906108e19190610e74565b1015610922576040517f08c379a000000000000000000000000000000000000000000000000000000000815260040161091990611123565b60405180910390fd5b600160025f8373ffffffffffffffffffffffffffffffffffffffff1673ffffffffffffffffffffffffffffffffffffffff1681526020019081526020015f205f6101000a81548160ff0219169083151502179055505f5f9054906101000a900473ffffffffffffffffffffffffffffffffffffffff1673ffffffffffffffffffffffffffffffffffffffff166323b872dd60015f9054906101000a900473ffffffffffffffffffffffffffffffffffffffff1683674563918244f400006040518463ffffffff1660e01b81526004016109fd93929190611250565b6020604051808303815f875af1158015610a19573d5f5f3e3d5ffd5b505050506040513d601f19601f82011682018060405250810190610a3d9190610faa565b5050565b60025f3373ffffffffffffffffffffffffffffffffffffffff1673ffffffffffffffffffffffffffffffffffffffff1681526020019081526020015f205f9054906101000a900460ff16610aca576040517f08c379a0000000000000000000000000000000000000000000000000000000008152600401610ac190610d93565b60405180910390fd5b5f60045f3373ffffffffffffffffffffffffffffffffffffffff1673ffffffffffffffffffffffffffffffffffffffff1681526020019081526020015f205403610b49576040517f08c379a0000000000000000000000000000000000000000000000000000000008152600401610b40906112cf565b60405180910390fd5b3373ffffffffffffffffffffffffffffffffffffffff167fab747b64f448d9897adcc7ebf99a271084b176a86029142272814c9d832a46ae60045f3373ffffffffffffffffffffffffffffffffffffffff1673ffffffffffffffffffffffffffffffffffffffff1681526020019081526020015f2054604051610bcc9190610fe4565b60405180910390a25f60045f3373ffffffffffffffffffffffffffffffffffffffff1673ffffffffffffffffffffffffffffffffffffffff1681526020019081526020015f2081905550565b5f5f9054906101000a900473ffffffffffffffffffffffffffffffffffffffff1681565b5f5ffd5b5f73ffffffffffffffffffffffffffffffffffffffff82169050919050565b5f610c6982610c40565b9050919050565b610c7981610c5f565b8114610c83575f5ffd5b50565b5f81359050610c9481610c70565b92915050565b5f60208284031215610caf57610cae610c3c565b5b5f610cbc84828501610c86565b91505092915050565b5f819050919050565b5f610ce8610ce3610cde84610c40565b610cc5565b610c40565b9050919050565b5f610cf982610cce565b9050919050565b5f610d0a82610cef565b9050919050565b610d1a81610d00565b82525050565b5f602082019050610d335f830184610d11565b92915050565b5f82825260208201905092915050565b7f506c61796572206e6f7420696e697469616c697a6564000000000000000000005f82015250565b5f610d7d601683610d39565b9150610d8882610d49565b602082019050919050565b5f6020820190508181035f830152610daa81610d71565b9050919050565b7f50726576696f75732067616d65206e6f742066696e69736865640000000000005f82015250565b5f610de5601a83610d39565b9150610df082610db1565b602082019050919050565b5f6020820190508181035f830152610e1281610dd9565b9050919050565b610e2281610c5f565b82525050565b5f602082019050610e3b5f830184610e19565b92915050565b5f819050919050565b610e5381610e41565b8114610e5d575f5ffd5b50565b5f81519050610e6e81610e4a565b92915050565b5f60208284031215610e8957610e88610c3c565b5b5f610e9684828501610e60565b91505092915050565b7f4e6f7420656e6f75676820746f6b656e730000000000000000000000000000005f82015250565b5f610ed3601183610d39565b9150610ede82610e9f565b602082019050919050565b5f6020820190508181035f830152610f0081610ec7565b9050919050565b5f819050919050565b5f610f2a610f25610f2084610f07565b610cc5565b610e41565b9050919050565b610f3a81610f10565b82525050565b5f606082019050610f535f830186610e19565b610f606020830185610e19565b610f6d6040830184610f31565b949350505050565b5f8115159050919050565b610f8981610f75565b8114610f93575f5ffd5b50565b5f81519050610fa481610f80565b92915050565b5f60208284031215610fbf57610fbe610c3c565b5b5f610fcc84828501610f96565b91505092915050565b610fde81610e41565b82525050565b5f602082019050610ff75f830184610fd5565b92915050565b7f4e487b71000000000000000000000000000000000000000000000000000000005f52601160045260245ffd5b5f61103482610e41565b91507fffffffffffffffffffffffffffffffffffffffffffffffffffffffffffffffff820361106657611065610ffd565b5b600182019050919050565b7f4e6f742074686520636f6e7472616374206f776e6572000000000000000000005f82015250565b5f6110a5601683610d39565b91506110b082611071565b602082019050919050565b5f6020820190508181035f8301526110d281611099565b9050919050565b7f4e6f7420656e6f75676820746f6b656e7320696e20636f6e74726163740000005f82015250565b5f61110d601d83610d39565b9150611118826110d9565b602082019050919050565b5f6020820190508181035f83015261113a81611101565b9050919050565b5f819050919050565b5f61116461115f61115a84611141565b610cc5565b610e41565b9050919050565b6111748161114a565b82525050565b5f60608201905061118d5f830186610e19565b61119a6020830185610e19565b6111a7604083018461116b565b949350505050565b7f506c6179657220616c726561647920696e697469616c697a65640000000000005f82015250565b5f6111e3601a83610d39565b91506111ee826111af565b602082019050919050565b5f6020820190508181035f830152611210816111d7565b9050919050565b5f819050919050565b5f61123a61123561123084611217565b610cc5565b610e41565b9050919050565b61124a81611220565b82525050565b5f6060820190506112635f830186610e19565b6112706020830185610e19565b61127d6040830184611241565b949350505050565b7f4e6f2067616d6520696e2070726f6772657373000000000000000000000000005f82015250565b5f6112b9601383610d39565b91506112c482611285565b602082019050919050565b5f6020820190508181035f8301526112e6816112ad565b905091905056fea264697066735822122045b3314808ce2a569d027ab818c0428a973530e1848745367ac126e22ba1866d64736f6c634300081c0033","linkReferences":{}},"methodIdentifiers":{"end()":"efbe1c1c","initPlayer(address)":"d2e81bf9","play()":"93e84cd9","token()":"fc0c546a","win(address)":"a34cc845"},"id":25}